{
  "_format": "hh-sol-artifact-1",
  "contractName": "TokenFactory",
  "sourceName": "contracts/TokenFactory.sol",
  "abi": [
    {
      "anonymous": false,
      "inputs": [
        {
          "indexed": true,
          "internalType": "address",
          "name": "contract_address",
          "type": "address"
        },
        {
          "indexed": false,
          "internalType": "string",
          "name": "name",
          "type": "string"
        },
        {
          "indexed": false,
          "internalType": "string",
          "name": "symbol",
          "type": "string"
        },
        {
          "indexed": false,
          "internalType": "bool",
          "name": "is_fungible",
          "type": "bool"
        },
        {
          "indexed": false,
          "internalType": "bytes",
          "name": "data",
          "type": "bytes"
        }
      ],
      "name": "TokenPoolCreation",
      "type": "event"
    },
    {
      "inputs": [
        {
          "internalType": "string",
          "name": "name",
          "type": "string"
        },
        {
          "internalType": "string",
          "name": "symbol",
          "type": "string"
        },
        {
          "internalType": "bool",
          "name": "is_fungible",
          "type": "bool"
        },
        {
          "internalType": "bytes",
          "name": "data",
          "type": "bytes"
        },
        {
          "internalType": "string",
          "name": "uri",
          "type": "string"
        }
      ],
      "name": "create",
      "outputs": [],
      "stateMutability": "nonpayable",
      "type": "function"
    },
    {
      "inputs": [
        {
          "internalType": "bytes4",
          "name": "interfaceId",
          "type": "bytes4"
        }
      ],
      "name": "supportsInterface",
      "outputs": [
        {
          "internalType": "bool",
          "name": "",
          "type": "bool"
        }
      ],
      "stateMutability": "view",
      "type": "function"
    }
  ],
  "bytecode": "0x608060405234801561001057600080fd5b50613556806100206000396000f3fe60806040523480156200001157600080fd5b50600436106200003a5760003560e01c806301ffc9a7146200003f57806383a74a0c1462000093575b600080fd5b6200007f62000050366004620002ce565b6001600160e01b0319167f83a74a0c000000000000000000000000000000000000000000000000000000001490565b604051901515815260200160405180910390f35b620000aa620000a436600462000411565b620000ac565b005b8315620001b05760008686604051620000c590620002b2565b620000d292919062000532565b604051809103906000f080158015620000ef573d6000803e3d6000fd5b5090506001600160a01b03811663f2fde38b336040516001600160e01b031960e084901b1681526001600160a01b039091166004820152602401600060405180830381600087803b1580156200014457600080fd5b505af115801562000159573d6000803e3d6000fd5b50505050806001600160a01b03167fca8fb21c1d554712c6778c5f566f410954f08d7eba66fd8e740581f9d93e1306888860018888604051620001a195949392919062000564565b60405180910390a250620002aa565b6000868683604051620001c390620002c0565b620001d193929190620005cc565b604051809103906000f080158015620001ee573d6000803e3d6000fd5b5090506001600160a01b03811663f2fde38b336040516001600160e01b031960e084901b1681526001600160a01b039091166004820152602401600060405180830381600087803b1580156200024357600080fd5b505af115801562000258573d6000803e3d6000fd5b50505050806001600160a01b03167fca8fb21c1d554712c6778c5f566f410954f08d7eba66fd8e740581f9d93e1306888860008888604051620002a095949392919062000564565b60405180910390a2505b505050505050565b611091806200061683390190565b611e7a80620016a783390190565b600060208284031215620002e157600080fd5b81356001600160e01b031981168114620002fa57600080fd5b9392505050565b7f4e487b7100000000000000000000000000000000000000000000000000000000600052604160045260246000fd5b600082601f8301126200034257600080fd5b813567ffffffffffffffff8082111562000360576200036062000301565b604051601f8301601f19908116603f011681019082821181831017156200038b576200038b62000301565b81604052838152866020858801011115620003a557600080fd5b836020870160208301376000602085830101528094505050505092915050565b60008083601f840112620003d857600080fd5b50813567ffffffffffffffff811115620003f157600080fd5b6020830191508360208285010111156200040a57600080fd5b9250929050565b60008060008060008060a087890312156200042b57600080fd5b863567ffffffffffffffff808211156200044457600080fd5b620004528a838b0162000330565b975060208901359150808211156200046957600080fd5b620004778a838b0162000330565b96506040890135915081151582146200048f57600080fd5b90945060608801359080821115620004a657600080fd5b620004b48a838b01620003c5565b90955093506080890135915080821115620004ce57600080fd5b50620004dd89828a0162000330565b9150509295509295509295565b6000815180845260005b818110156200051257602081850181015186830182015201620004f4565b506000602082860101526020601f19601f83011685010191505092915050565b604081526000620005476040830185620004ea565b82810360208401526200055b8185620004ea565b95945050505050565b608081526000620005796080830188620004ea565b82810360208401526200058d8188620004ea565b905085151560408401528281036060840152838152838560208301376000602085830101526020601f19601f8601168201019150509695505050505050565b606081526000620005e16060830186620004ea565b8281036020840152620005f58186620004ea565b905082810360408401526200060b8185620004ea565b969550505050505056fe60806040523480156200001157600080fd5b5060405162001091380380620010918339810160408190526200003491620001a9565b818133806200005d57604051631e4fbdf760e01b81526000600482015260240160405180910390fd5b620000688162000091565b506004620000778382620002a4565b506005620000868282620002a4565b505050505062000370565b600080546001600160a01b038381166001600160a01b0319831681178455604051919092169283917f8be0079c531659141344cd1fd0a4f28419497f9722a3daafe3b4186f6b6457e09190a35050565b634e487b7160e01b600052604160045260246000fd5b600082601f8301126200010957600080fd5b81516001600160401b0380821115620001265762000126620000e1565b604051601f8301601f19908116603f01168101908282118183101715620001515762000151620000e1565b81604052838152602092508660208588010111156200016f57600080fd5b600091505b8382101562000193578582018301518183018401529082019062000174565b6000602085830101528094505050505092915050565b60008060408385031215620001bd57600080fd5b82516001600160401b0380821115620001d557600080fd5b620001e386838701620000f7565b93506020850151915080821115620001fa57600080fd5b506200020985828601620000f7565b9150509250929050565b600181811c908216806200022857607f821691505b6020821081036200024957634e487b7160e01b600052602260045260246000fd5b50919050565b601f8211156200029f576000816000526020600020601f850160051c810160208610156200027a5750805b601f850160051c820191505b818110156200029b5782815560010162000286565b5050505b505050565b81516001600160401b03811115620002c057620002c0620000e1565b620002d881620002d1845462000213565b846200024f565b602080601f831160018114620003105760008415620002f75750858301515b600019600386901b1c1916600185901b1785556200029b565b600085815260208120601f198616915b82811015620003415788860151825594840194600190910190840162000320565b5085821015620003605787850151600019600388901b60f8161c191681555b5050505050600190811b01905550565b610d1180620003806000396000f3fe608060405234801561001057600080fd5b506004361061011b5760003560e01c80637b5eb564116100b257806396adfe4211610081578063c0ea7a7a11610066578063c0ea7a7a14610246578063dd62ed3e14610259578063f2fde38b1461029257600080fd5b806396adfe4214610220578063a9059cbb1461023357600080fd5b80637b5eb564146101d757806383e49c53146101ea5780638da5cb5b146101fd57806395d89b411461021857600080fd5b806323b872dd116100ee57806323b872dd14610182578063313ce5671461019557806370a08231146101a4578063715018a6146101cd57600080fd5b806301ffc9a71461012057806306fdde0314610148578063095ea7b31461015d57806318160ddd14610170575b600080fd5b61013361012e366004610a06565b6102a5565b60405190151581526020015b60405180910390f35b61015061033e565b60405161013f9190610a4f565b61013361016b366004610aba565b6103d0565b6003545b60405190815260200161013f565b610133610190366004610ae4565b6103e8565b6040516012815260200161013f565b6101746101b2366004610b20565b6001600160a01b031660009081526001602052604090205490565b6101d561040c565b005b6101336101e5366004610b84565b610420565b6101d56101f8366004610b84565b610435565b6000546040516001600160a01b03909116815260200161013f565b6101506104e2565b6101d561022e366004610b84565b6104f1565b610133610241366004610aba565b610503565b6101d5610254366004610bde565b610511565b610174610267366004610c4d565b6001600160a01b03918216600090815260026020908152604080832093909416825291909152205490565b6101d56102a0366004610b20565b610545565b60007fffffffff0000000000000000000000000000000000000000000000000000000082167faefdad0f00000000000000000000000000000000000000000000000000000000148061033857507f01ffc9a7000000000000000000000000000000000000000000000000000000007fffffffff000000000000000000000000000000000000000000000000000000008316145b92915050565b60606004805461034d90610c80565b80601f016020809104026020016040519081016040528092919081815260200182805461037990610c80565b80156103c65780601f1061039b576101008083540402835291602001916103c6565b820191906000526020600020905b8154815290600101906020018083116103a957829003601f168201915b5050505050905090565b6000336103de81858561059c565b5060019392505050565b6000336103f68582856105ae565b61040185858561063f565b506001949350505050565b61041461069e565b61041e60006106e4565b565b600061042c85856103d0565b95945050505050565b6001600160a01b03841633146104d2576040517f08c379a000000000000000000000000000000000000000000000000000000000815260206004820152602260248201527f455243323057697468446174613a2063616c6c6572206973206e6f74206f776e60448201527f657200000000000000000000000000000000000000000000000000000000000060648201526084015b60405180910390fd5b6104dc848461074c565b50505050565b60606005805461034d90610c80565b6104f961069e565b6104dc8484610786565b6000336103de81858561063f565b336001600160a01b038616036105315761052b8484610503565b5061053e565b61053c8585856103e8565b505b5050505050565b61054d61069e565b6001600160a01b038116610590576040517f1e4fbdf7000000000000000000000000000000000000000000000000000000008152600060048201526024016104c9565b610599816106e4565b50565b6105a983838360016107bc565b505050565b6001600160a01b0383811660009081526002602090815260408083209386168352929052205460001981146104dc5781811015610630576040517ffb8f41b20000000000000000000000000000000000000000000000000000000081526001600160a01b038416600482015260248101829052604481018390526064016104c9565b6104dc848484840360006107bc565b6001600160a01b03831661066957604051634b637e8f60e11b8152600060048201526024016104c9565b6001600160a01b0382166106935760405163ec442f0560e01b8152600060048201526024016104c9565b6105a98383836108c3565b6000546001600160a01b0316331461041e576040517f118cdaa70000000000000000000000000000000000000000000000000000000081523360048201526024016104c9565b600080546001600160a01b038381167fffffffffffffffffffffffff0000000000000000000000000000000000000000831681178455604051919092169283917f8be0079c531659141344cd1fd0a4f28419497f9722a3daafe3b4186f6b6457e09190a35050565b6001600160a01b03821661077657604051634b637e8f60e11b8152600060048201526024016104c9565b610782826000836108c3565b5050565b6001600160a01b0382166107b05760405163ec442f0560e01b8152600060048201526024016104c9565b610782600083836108c3565b6001600160a01b0384166107ff576040517fe602df05000000000000000000000000000000000000000000000000000000008152600060048201526024016104c9565b6001600160a01b038316610842576040517f94280d62000000000000000000000000000000000000000000000000000000008152600060048201526024016104c9565b6001600160a01b03808516600090815260026020908152604080832093871683529290522082905580156104dc57826001600160a01b0316846001600160a01b03167f8c5be1e5ebec7d5bd14f71427d1e84f3dd0314c0f7b2291e5b200ac8c7c3b925846040516108b591815260200190565b60405180910390a350505050565b6001600160a01b0383166108ee5780600360008282546108e39190610cba565b909155506109799050565b6001600160a01b0383166000908152600160205260409020548181101561095a576040517fe450d38c0000000000000000000000000000000000000000000000000000000081526001600160a01b038516600482015260248101829052604481018390526064016104c9565b6001600160a01b03841660009081526001602052604090209082900390555b6001600160a01b038216610995576003805482900390556109b4565b6001600160a01b03821660009081526001602052604090208054820190555b816001600160a01b0316836001600160a01b03167fddf252ad1be2c89b69c2b068fc378daa952ba7f163c4a11628f55a4df523b3ef836040516109f991815260200190565b60405180910390a3505050565b600060208284031215610a1857600080fd5b81357fffffffff0000000000000000000000000000000000000000000000000000000081168114610a4857600080fd5b9392505050565b60006020808352835180602085015260005b81811015610a7d57858101830151858201604001528201610a61565b506000604082860101526040601f19601f8301168501019250505092915050565b80356001600160a01b0381168114610ab557600080fd5b919050565b60008060408385031215610acd57600080fd5b610ad683610a9e565b946020939093013593505050565b600080600060608486031215610af957600080fd5b610b0284610a9e565b9250610b1060208501610a9e565b9150604084013590509250925092565b600060208284031215610b3257600080fd5b610a4882610a9e565b60008083601f840112610b4d57600080fd5b50813567ffffffffffffffff811115610b6557600080fd5b602083019150836020828501011115610b7d57600080fd5b9250929050565b60008060008060608587031215610b9a57600080fd5b610ba385610a9e565b935060208501359250604085013567ffffffffffffffff811115610bc657600080fd5b610bd287828801610b3b565b95989497509550505050565b600080600080600060808688031215610bf657600080fd5b610bff86610a9e565b9450610c0d60208701610a9e565b935060408601359250606086013567ffffffffffffffff811115610c3057600080fd5b610c3c88828901610b3b565b969995985093965092949392505050565b60008060408385031215610c6057600080fd5b610c6983610a9e565b9150610c7760208401610a9e565b90509250929050565b600181811c90821680610c9457607f821691505b602082108103610cb457634e487b7160e01b600052602260045260246000fd5b50919050565b8082018082111561033857634e487b7160e01b600052601160045260246000fdfea26469706673582212205d84fab5ed7cc405c142f292f6b5b8cf51bc28084ba81f707ed013f1af9efbc464736f6c63430008180033608060405260016008553480156200001657600080fd5b5060405162001e7a38038062001e7a8339810160408190526200003991620001c0565b828233806200006257604051631e4fbdf760e01b81526000600482015260240160405180910390fd5b6200006d81620000a8565b5060016200007c8382620002e2565b5060026200008b8282620002e2565b50600991506200009e90508282620002e2565b50505050620003ae565b600080546001600160a01b038381166001600160a01b0319831681178455604051919092169283917f8be0079c531659141344cd1fd0a4f28419497f9722a3daafe3b4186f6b6457e09190a35050565b634e487b7160e01b600052604160045260246000fd5b600082601f8301126200012057600080fd5b81516001600160401b03808211156200013d576200013d620000f8565b604051601f8301601f19908116603f01168101908282118183101715620001685762000168620000f8565b81604052838152602092508660208588010111156200018657600080fd5b600091505b83821015620001aa57858201830151818301840152908201906200018b565b6000602085830101528094505050505092915050565b600080600060608486031215620001d657600080fd5b83516001600160401b0380821115620001ee57600080fd5b620001fc878388016200010e565b945060208601519150808211156200021357600080fd5b62000221878388016200010e565b935060408601519150808211156200023857600080fd5b5062000247868287016200010e565b9150509250925092565b600181811c908216806200026657607f821691505b6020821081036200028757634e487b7160e01b600052602260045260246000fd5b50919050565b601f821115620002dd576000816000526020600020601f850160051c81016020861015620002b85750805b601f850160051c820191505b81811015620002d957828155600101620002c4565b5050505b505050565b81516001600160401b03811115620002fe57620002fe620000f8565b62000316816200030f845462000251565b846200028d565b602080601f8311600181146200034e5760008415620003355750858301515b600019600386901b1c1916600185901b178555620002d9565b600085815260208120601f198616915b828110156200037f578886015182559484019460019091019084016200035e565b50858210156200039e5787850151600019600388901b60f8161c191681555b5050505050600190811b01905550565b611abc80620003be6000396000f3fe608060405234801561001057600080fd5b506004361061018d5760003560e01c80637a0101a2116100e3578063b88d4fde1161008c578063d4f1804611610066578063d4f180461461032a578063e985e9c51461033d578063f2fde38b1461037957600080fd5b8063b88d4fde146102f1578063c0ea7a7a14610304578063c87b56dd1461031757600080fd5b80638da5cb5b116100bd5780638da5cb5b146102c557806395d89b41146102d6578063a22cb465146102de57600080fd5b80637a0101a2146102975780637b5eb5641461029f57806383e49c53146102b257600080fd5b806323b872dd116101455780636352211e1161011f5780636352211e1461025b57806370a082311461026e578063715018a61461028f57600080fd5b806323b872dd1461022257806324e18a0b1461023557806342842e0e1461024857600080fd5b8063081812fc11610176578063081812fc146101cf578063095ea7b3146101fa5780631cbf311d1461020f57600080fd5b806301ffc9a71461019257806306fdde03146101ba575b600080fd5b6101a56101a03660046113c9565b61038c565b60405190151581526020015b60405180910390f35b6101c26103d0565b6040516101b19190611436565b6101e26101dd366004611449565b610462565b6040516001600160a01b0390911681526020016101b1565b61020d61020836600461147e565b61048b565b005b61020d61021d366004611501565b61049a565b61020d610230366004611562565b6104aa565b61020d61024336600461162a565b61054d565b61020d610256366004611562565b610609565b6101e2610269366004611449565b610629565b61028161027c3660046116b8565b610634565b6040519081526020016101b1565b61020d610695565b6101c26106a9565b61020d6102ad3660046116d3565b6106b8565b61020d6102c03660046116d3565b6106c2565b6000546001600160a01b03166101e2565b6101c2610763565b61020d6102ec366004611715565b610772565b61020d6102ff366004611748565b61077d565b61020d6103123660046117a9565b610794565b6101c2610325366004611449565b6107dd565b61020d610338366004611818565b6108e1565b6101a561034b36600461186b565b6001600160a01b03918216600090815260066020908152604080832093909416825291909152205460ff1690565b61020d6103873660046116b8565b610956565b60006001600160e01b031982167faefe69bf0000000000000000000000000000000000000000000000000000000014806103ca57506103ca826109ad565b92915050565b6060600180546103df90611895565b80601f016020809104026020016040519081016040528092919081815260200182805461040b90611895565b80156104585780601f1061042d57610100808354040283529160200191610458565b820191906000526020600020905b81548152906001019060200180831161043b57829003601f168201915b5050505050905090565b600061046d826109eb565b506000828152600560205260409020546001600160a01b03166103ca565b610496828233610a24565b5050565b6104a48484610772565b50505050565b6001600160a01b0382166104d957604051633250574960e11b8152600060048201526024015b60405180910390fd5b60006104e6838333610a31565b9050836001600160a01b0316816001600160a01b0316146104a4576040517f64283d7b0000000000000000000000000000000000000000000000000000000081526001600160a01b03808616600483015260248201849052821660448201526064016104d0565b610555610b37565b6008805460009182610566836118cf565b9190505590506105ad858286868080601f016020809104026020016040519081016040528093929190818152602001838380828437600092019190915250610b7d92505050565b815182906000036105f7576105f2826105c4610b94565b6105cd85610ba3565b6040516020016105de9291906118f6565b604051602081830303815290604052610c43565b610601565b6106018284610c43565b505050505050565b6106248383836040518060200160405280600081525061077d565b505050565b60006103ca826109eb565b60006001600160a01b038216610679576040517f89c62b64000000000000000000000000000000000000000000000000000000008152600060048201526024016104d0565b506001600160a01b031660009081526004602052604090205490565b61069d610b37565b6106a76000610c93565b565b60606106b3610b94565b905090565b6104a4848461048b565b6001600160a01b038416331461075a576040517f08c379a000000000000000000000000000000000000000000000000000000000815260206004820152602360248201527f45524337323157697468446174613a2063616c6c6572206973206e6f74206f7760448201527f6e6572000000000000000000000000000000000000000000000000000000000060648201526084016104d0565b6104a483610cf0565b6060600280546103df90611895565b610496338383610d2b565b6107888484846104aa565b6104a484848484610de3565b6107d685858585858080601f01602080910402602001604051908101604052809392919081815260200183838082843760009201919091525061077d92505050565b5050505050565b60606107e8826109eb565b506000828152600760205260408120805461080290611895565b80601f016020809104026020016040519081016040528092919081815260200182805461082e90611895565b801561087b5780601f106108505761010080835404028352916020019161087b565b820191906000526020600020905b81548152906001019060200180831161085e57829003601f168201915b50505050509050600061088c610b94565b9050805160000361089e575092915050565b8151156108d05780826040516020016108b89291906118f6565b60405160208183030381529060405292505050919050565b6108d984610f05565b949350505050565b6108e9610b37565b60088054600091826108fa836118cf565b919050559050610941848285858080601f016020809104026020016040519081016040528093929190818152602001838380828437600092019190915250610b7d92505050565b6104a48161094d610b94565b6105cd84610ba3565b61095e610b37565b6001600160a01b0381166109a1576040517f1e4fbdf7000000000000000000000000000000000000000000000000000000008152600060048201526024016104d0565b6109aa81610c93565b50565b60006001600160e01b031982167f490649060000000000000000000000000000000000000000000000000000000014806103ca57506103ca82610f6d565b6000818152600360205260408120546001600160a01b0316806103ca57604051637e27328960e01b8152600481018490526024016104d0565b6106248383836001611008565b6000828152600360205260408120546001600160a01b0390811690831615610a5e57610a5e818486611153565b6001600160a01b03811615610a9c57610a7b600085600080611008565b6001600160a01b038116600090815260046020526040902080546000190190555b6001600160a01b03851615610acb576001600160a01b0385166000908152600460205260409020805460010190555b600084815260036020526040808220805473ffffffffffffffffffffffffffffffffffffffff19166001600160a01b0389811691821790925591518793918516917fddf252ad1be2c89b69c2b068fc378daa952ba7f163c4a11628f55a4df523b3ef91a4949350505050565b6000546001600160a01b031633146106a7576040517f118cdaa70000000000000000000000000000000000000000000000000000000081523360048201526024016104d0565b610b8783836111d0565b6106246000848484610de3565b6060600980546103df90611895565b60606000610bb08361124e565b600101905060008167ffffffffffffffff811115610bd057610bd061159e565b6040519080825280601f01601f191660200182016040528015610bfa576020820181803683370190505b5090508181016020015b600019017f3031323334353637383961626364656600000000000000000000000000000000600a86061a8153600a8504945084610c0457509392505050565b6000828152600760205260409020610c5b828261196d565b506040518281527ff8e1a15aba9398e019f0b49df1a4fde98ee17ae345cb5f6b5e2c27f5033e8ce79060200160405180910390a15050565b600080546001600160a01b0383811673ffffffffffffffffffffffffffffffffffffffff19831681178455604051919092169283917f8be0079c531659141344cd1fd0a4f28419497f9722a3daafe3b4186f6b6457e09190a35050565b6000610cff6000836000610a31565b90506001600160a01b03811661049657604051637e27328960e01b8152600481018390526024016104d0565b6001600160a01b038216610d76576040517f5b08ba180000000000000000000000000000000000000000000000000000000081526001600160a01b03831660048201526024016104d0565b6001600160a01b03838116600081815260066020908152604080832094871680845294825291829020805460ff191686151590811790915591519182527f17307eab39ab6107e8899845ad3d59bd9653f200f220920489ca2b5937696c31910160405180910390a3505050565b6001600160a01b0383163b156104a457604051630a85bd0160e11b81526001600160a01b0384169063150b7a0290610e25903390889087908790600401611a2d565b6020604051808303816000875af1925050508015610e60575060408051601f3d908101601f19168201909252610e5d91810190611a69565b60015b610ec9573d808015610e8e576040519150601f19603f3d011682016040523d82523d6000602084013e610e93565b606091505b508051600003610ec157604051633250574960e11b81526001600160a01b03851660048201526024016104d0565b805181602001fd5b6001600160e01b03198116630a85bd0160e11b146107d657604051633250574960e11b81526001600160a01b03851660048201526024016104d0565b6060610f10826109eb565b506000610f1b610b94565b90506000815111610f3b5760405180602001604052806000815250610f66565b80610f4584610ba3565b604051602001610f569291906118f6565b6040516020818303038152906040525b9392505050565b60006001600160e01b031982167f80ac58cd000000000000000000000000000000000000000000000000000000001480610fd057506001600160e01b031982167f5b5e139f00000000000000000000000000000000000000000000000000000000145b806103ca57507f01ffc9a7000000000000000000000000000000000000000000000000000000006001600160e01b03198316146103ca565b808061101c57506001600160a01b03821615155b1561111657600061102c846109eb565b90506001600160a01b038316158015906110585750826001600160a01b0316816001600160a01b031614155b801561108a57506001600160a01b0380821660009081526006602090815260408083209387168352929052205460ff16155b156110cc576040517fa9fbf51f0000000000000000000000000000000000000000000000000000000081526001600160a01b03841660048201526024016104d0565b81156111145783856001600160a01b0316826001600160a01b03167f8c5be1e5ebec7d5bd14f71427d1e84f3dd0314c0f7b2291e5b200ac8c7c3b92560405160405180910390a45b505b50506000908152600560205260409020805473ffffffffffffffffffffffffffffffffffffffff19166001600160a01b0392909216919091179055565b61115e838383611330565b610624576001600160a01b03831661118c57604051637e27328960e01b8152600481018290526024016104d0565b6040517f177e802f0000000000000000000000000000000000000000000000000000000081526001600160a01b0383166004820152602481018290526044016104d0565b6001600160a01b0382166111fa57604051633250574960e11b8152600060048201526024016104d0565b600061120883836000610a31565b90506001600160a01b03811615610624576040517f73c6ac6e000000000000000000000000000000000000000000000000000000008152600060048201526024016104d0565b6000807a184f03e93ff9f4daa797ed6e38ed64bf6a1f0100000000000000008310611297577a184f03e93ff9f4daa797ed6e38ed64bf6a1f010000000000000000830492506040015b6d04ee2d6d415b85acef810000000083106112c3576d04ee2d6d415b85acef8100000000830492506020015b662386f26fc1000083106112e157662386f26fc10000830492506010015b6305f5e10083106112f9576305f5e100830492506008015b612710831061130d57612710830492506004015b6064831061131f576064830492506002015b600a83106103ca5760010192915050565b60006001600160a01b038316158015906108d95750826001600160a01b0316846001600160a01b0316148061138a57506001600160a01b0380851660009081526006602090815260408083209387168352929052205460ff165b806108d95750506000908152600560205260409020546001600160a01b03908116911614919050565b6001600160e01b0319811681146109aa57600080fd5b6000602082840312156113db57600080fd5b8135610f66816113b3565b60005b838110156114015781810151838201526020016113e9565b50506000910152565b600081518084526114228160208601602086016113e6565b601f01601f19169290920160200192915050565b602081526000610f66602083018461140a565b60006020828403121561145b57600080fd5b5035919050565b80356001600160a01b038116811461147957600080fd5b919050565b6000806040838503121561149157600080fd5b61149a83611462565b946020939093013593505050565b8035801515811461147957600080fd5b60008083601f8401126114ca57600080fd5b50813567ffffffffffffffff8111156114e257600080fd5b6020830191508360208285010111156114fa57600080fd5b9250929050565b6000806000806060858703121561151757600080fd5b61152085611462565b935061152e602086016114a8565b9250604085013567ffffffffffffffff81111561154a57600080fd5b611556878288016114b8565b95989497509550505050565b60008060006060848603121561157757600080fd5b61158084611462565b925061158e60208501611462565b9150604084013590509250925092565b634e487b7160e01b600052604160045260246000fd5b600067ffffffffffffffff808411156115cf576115cf61159e565b604051601f8501601f19908116603f011681019082821181831017156115f7576115f761159e565b8160405280935085815286868601111561161057600080fd5b858560208301376000602087830101525050509392505050565b6000806000806060858703121561164057600080fd5b61164985611462565b9350602085013567ffffffffffffffff8082111561166657600080fd5b611672888389016114b8565b9095509350604087013591508082111561168b57600080fd5b508501601f8101871361169d57600080fd5b6116ac878235602084016115b4565b91505092959194509250565b6000602082840312156116ca57600080fd5b610f6682611462565b600080600080606085870312156116e957600080fd5b6116f285611462565b935060208501359250604085013567ffffffffffffffff81111561154a57600080fd5b6000806040838503121561172857600080fd5b61173183611462565b915061173f602084016114a8565b90509250929050565b6000806000806080858703121561175e57600080fd5b61176785611462565b935061177560208601611462565b925060408501359150606085013567ffffffffffffffff81111561179857600080fd5b8501601f8101871361169d57600080fd5b6000806000806000608086880312156117c157600080fd5b6117ca86611462565b94506117d860208701611462565b935060408601359250606086013567ffffffffffffffff8111156117fb57600080fd5b611807888289016114b8565b969995985093965092949392505050565b60008060006040848603121561182d57600080fd5b61183684611462565b9250602084013567ffffffffffffffff81111561185257600080fd5b61185e868287016114b8565b9497909650939450505050565b6000806040838503121561187e57600080fd5b61188783611462565b915061173f60208401611462565b600181811c908216806118a957607f821691505b6020821081036118c957634e487b7160e01b600052602260045260246000fd5b50919050565b6000600182016118ef57634e487b7160e01b600052601160045260246000fd5b5060010190565b600083516119088184602088016113e6565b83519083019061191c8183602088016113e6565b01949350505050565b601f821115610624576000816000526020600020601f850160051c8101602086101561194e5750805b601f850160051c820191505b818110156106015782815560010161195a565b815167ffffffffffffffff8111156119875761198761159e565b61199b816119958454611895565b84611925565b602080601f8311600181146119d057600084156119b85750858301515b600019600386901b1c1916600185901b178555610601565b600085815260208120601f198616915b828110156119ff578886015182559484019460019091019084016119e0565b5085821015611a1d5787850151600019600388901b60f8161c191681555b5050505050600190811b01905550565b60006001600160a01b03808716835280861660208401525083604083015260806060830152611a5f608083018461140a565b9695505050505050565b600060208284031215611a7b57600080fd5b8151610f66816113b356fea2646970667358221220fa94f8dea395001739b2e6ed6f24b00e5783f2fd1805ccc88cde151a473293f064736f6c63430008180033a264697066735822122052e1ed1b36d488d9d7a50d16eeee680ec0b55ccb7feb6bd88b9f98b69064b4e264736f6c63430008180033",
  "linkReferences": {},
  "deployedLinkReferences": {}
}